{
  "_format": "hh-sol-artifact-1",
  "contractName": "Emoji",
  "sourceName": "contracts/Emoji.sol",
  "abi": [
    {
      "inputs": [],
      "stateMutability": "nonpayable",
      "type": "constructor"
    },
    {
      "anonymous": false,
      "inputs": [
        {
          "indexed": true,
          "internalType": "address",
          "name": "owner",
          "type": "address"
        },
        {
          "indexed": true,
          "internalType": "address",
          "name": "approved",
          "type": "address"
        },
        {
          "indexed": true,
          "internalType": "uint256",
          "name": "tokenId",
          "type": "uint256"
        }
      ],
      "name": "Approval",
      "type": "event"
    },
    {
      "anonymous": false,
      "inputs": [
        {
          "indexed": true,
          "internalType": "address",
          "name": "owner",
          "type": "address"
        },
        {
          "indexed": true,
          "internalType": "address",
          "name": "operator",
          "type": "address"
        },
        {
          "indexed": false,
          "internalType": "bool",
          "name": "approved",
          "type": "bool"
        }
      ],
      "name": "ApprovalForAll",
      "type": "event"
    },
    {
      "anonymous": false,
      "inputs": [
        {
          "indexed": true,
          "internalType": "address",
          "name": "from",
          "type": "address"
        },
        {
          "indexed": true,
          "internalType": "address",
          "name": "to",
          "type": "address"
        },
        {
          "indexed": true,
          "internalType": "uint256",
          "name": "tokenId",
          "type": "uint256"
        }
      ],
      "name": "Transfer",
      "type": "event"
    },
    {
      "inputs": [
        {
          "internalType": "address",
          "name": "to",
          "type": "address"
        },
        {
          "internalType": "uint256",
          "name": "tokenId",
          "type": "uint256"
        }
      ],
      "name": "approve",
      "outputs": [],
      "stateMutability": "nonpayable",
      "type": "function"
    },
    {
      "inputs": [
        {
          "internalType": "address",
          "name": "owner",
          "type": "address"
        }
      ],
      "name": "balanceOf",
      "outputs": [
        {
          "internalType": "uint256",
          "name": "",
          "type": "uint256"
        }
      ],
      "stateMutability": "view",
      "type": "function"
    },
    {
      "inputs": [
        {
          "components": [
            {
              "internalType": "string",
              "name": "stringData",
              "type": "string"
            },
            {
              "internalType": "address",
              "name": "targetAddress",
              "type": "address"
            },
            {
              "internalType": "int256",
              "name": "x",
              "type": "int256"
            },
            {
              "internalType": "int256",
              "name": "y",
              "type": "int256"
            },
            {
              "internalType": "string",
              "name": "tokenURI",
              "type": "string"
            }
          ],
          "internalType": "struct Emoji.MintNFTData[]",
          "name": "mintNftDataArr",
          "type": "tuple[]"
        }
      ],
      "name": "batchMint",
      "outputs": [
        {
          "components": [
            {
              "internalType": "uint256",
              "name": "tokenId",
              "type": "uint256"
            },
            {
              "internalType": "string",
              "name": "stringData",
              "type": "string"
            },
            {
              "internalType": "address",
              "name": "targetAddress",
              "type": "address"
            },
            {
              "internalType": "int256",
              "name": "x",
              "type": "int256"
            },
            {
              "internalType": "int256",
              "name": "y",
              "type": "int256"
            }
          ],
          "internalType": "struct Emoji.NFTData[]",
          "name": "",
          "type": "tuple[]"
        }
      ],
      "stateMutability": "nonpayable",
      "type": "function"
    },
    {
      "inputs": [
        {
          "internalType": "uint256",
          "name": "tokenId",
          "type": "uint256"
        }
      ],
      "name": "getApproved",
      "outputs": [
        {
          "internalType": "address",
          "name": "",
          "type": "address"
        }
      ],
      "stateMutability": "view",
      "type": "function"
    },
    {
      "inputs": [
        {
          "internalType": "int256",
          "name": "x",
          "type": "int256"
        },
        {
          "internalType": "int256",
          "name": "y",
          "type": "int256"
        }
      ],
      "name": "getNFTByCoordinates",
      "outputs": [
        {
          "components": [
            {
              "internalType": "uint256",
              "name": "tokenId",
              "type": "uint256"
            },
            {
              "internalType": "string",
              "name": "stringData",
              "type": "string"
            },
            {
              "internalType": "address",
              "name": "targetAddress",
              "type": "address"
            },
            {
              "internalType": "int256",
              "name": "x",
              "type": "int256"
            },
            {
              "internalType": "int256",
              "name": "y",
              "type": "int256"
            }
          ],
          "internalType": "struct Emoji.NFTData",
          "name": "",
          "type": "tuple"
        }
      ],
      "stateMutability": "view",
      "type": "function"
    },
    {
      "inputs": [
        {
          "internalType": "uint256",
          "name": "tokenId",
          "type": "uint256"
        }
      ],
      "name": "getNFTById",
      "outputs": [
        {
          "components": [
            {
              "internalType": "uint256",
              "name": "tokenId",
              "type": "uint256"
            },
            {
              "internalType": "string",
              "name": "stringData",
              "type": "string"
            },
            {
              "internalType": "address",
              "name": "targetAddress",
              "type": "address"
            },
            {
              "internalType": "int256",
              "name": "x",
              "type": "int256"
            },
            {
              "internalType": "int256",
              "name": "y",
              "type": "int256"
            }
          ],
          "internalType": "struct Emoji.NFTData",
          "name": "",
          "type": "tuple"
        }
      ],
      "stateMutability": "view",
      "type": "function"
    },
    {
      "inputs": [
        {
          "internalType": "int256",
          "name": "x1",
          "type": "int256"
        },
        {
          "internalType": "int256",
          "name": "y1",
          "type": "int256"
        },
        {
          "internalType": "int256",
          "name": "x2",
          "type": "int256"
        },
        {
          "internalType": "int256",
          "name": "y2",
          "type": "int256"
        }
      ],
      "name": "getNFTsInRectangle",
      "outputs": [
        {
          "components": [
            {
              "internalType": "uint256",
              "name": "tokenId",
              "type": "uint256"
            },
            {
              "internalType": "string",
              "name": "stringData",
              "type": "string"
            },
            {
              "internalType": "address",
              "name": "targetAddress",
              "type": "address"
            },
            {
              "internalType": "int256",
              "name": "x",
              "type": "int256"
            },
            {
              "internalType": "int256",
              "name": "y",
              "type": "int256"
            }
          ],
          "internalType": "struct Emoji.NFTData[][]",
          "name": "",
          "type": "tuple[][]"
        }
      ],
      "stateMutability": "view",
      "type": "function"
    },
    {
      "inputs": [
        {
          "internalType": "address",
          "name": "owner",
          "type": "address"
        },
        {
          "internalType": "address",
          "name": "operator",
          "type": "address"
        }
      ],
      "name": "isApprovedForAll",
      "outputs": [
        {
          "internalType": "bool",
          "name": "",
          "type": "bool"
        }
      ],
      "stateMutability": "view",
      "type": "function"
    },
    {
      "inputs": [
        {
          "components": [
            {
              "internalType": "string",
              "name": "stringData",
              "type": "string"
            },
            {
              "internalType": "address",
              "name": "targetAddress",
              "type": "address"
            },
            {
              "internalType": "int256",
              "name": "x",
              "type": "int256"
            },
            {
              "internalType": "int256",
              "name": "y",
              "type": "int256"
            },
            {
              "internalType": "string",
              "name": "tokenURI",
              "type": "string"
            }
          ],
          "internalType": "struct Emoji.MintNFTData",
          "name": "mintNftData",
          "type": "tuple"
        }
      ],
      "name": "mint",
      "outputs": [
        {
          "components": [
            {
              "internalType": "uint256",
              "name": "tokenId",
              "type": "uint256"
            },
            {
              "internalType": "string",
              "name": "stringData",
              "type": "string"
            },
            {
              "internalType": "address",
              "name": "targetAddress",
              "type": "address"
            },
            {
              "internalType": "int256",
              "name": "x",
              "type": "int256"
            },
            {
              "internalType": "int256",
              "name": "y",
              "type": "int256"
            }
          ],
          "internalType": "struct Emoji.NFTData",
          "name": "",
          "type": "tuple"
        }
      ],
      "stateMutability": "nonpayable",
      "type": "function"
    },
    {
      "inputs": [
        {
          "components": [
            {
              "internalType": "int256",
              "name": "x",
              "type": "int256"
            },
            {
              "internalType": "int256",
              "name": "y",
              "type": "int256"
            },
            {
              "internalType": "string",
              "name": "stringData",
              "type": "string"
            },
            {
              "internalType": "address",
              "name": "targetAddress",
              "type": "address"
            },
            {
              "internalType": "string",
              "name": "tokenURI",
              "type": "string"
            }
          ],
          "internalType": "struct Emoji.KKK",
          "name": "mintNftData",
          "type": "tuple"
        }
      ],
      "name": "mint2",
      "outputs": [
        {
          "components": [
            {
              "internalType": "uint256",
              "name": "tokenId",
              "type": "uint256"
            },
            {
              "internalType": "string",
              "name": "stringData",
              "type": "string"
            },
            {
              "internalType": "address",
              "name": "targetAddress",
              "type": "address"
            },
            {
              "internalType": "int256",
              "name": "x",
              "type": "int256"
            },
            {
              "internalType": "int256",
              "name": "y",
              "type": "int256"
            }
          ],
          "internalType": "struct Emoji.NFTData",
          "name": "",
          "type": "tuple"
        }
      ],
      "stateMutability": "nonpayable",
      "type": "function"
    },
    {
      "inputs": [],
      "name": "name",
      "outputs": [
        {
          "internalType": "string",
          "name": "",
          "type": "string"
        }
      ],
      "stateMutability": "view",
      "type": "function"
    },
    {
      "inputs": [
        {
          "internalType": "uint256",
          "name": "tokenId",
          "type": "uint256"
        }
      ],
      "name": "ownerOf",
      "outputs": [
        {
          "internalType": "address",
          "name": "",
          "type": "address"
        }
      ],
      "stateMutability": "view",
      "type": "function"
    },
    {
      "inputs": [
        {
          "internalType": "address",
          "name": "from",
          "type": "address"
        },
        {
          "internalType": "address",
          "name": "to",
          "type": "address"
        },
        {
          "internalType": "uint256",
          "name": "tokenId",
          "type": "uint256"
        }
      ],
      "name": "safeTransferFrom",
      "outputs": [],
      "stateMutability": "nonpayable",
      "type": "function"
    },
    {
      "inputs": [
        {
          "internalType": "address",
          "name": "from",
          "type": "address"
        },
        {
          "internalType": "address",
          "name": "to",
          "type": "address"
        },
        {
          "internalType": "uint256",
          "name": "tokenId",
          "type": "uint256"
        },
        {
          "internalType": "bytes",
          "name": "data",
          "type": "bytes"
        }
      ],
      "name": "safeTransferFrom",
      "outputs": [],
      "stateMutability": "nonpayable",
      "type": "function"
    },
    {
      "inputs": [
        {
          "internalType": "address",
          "name": "operator",
          "type": "address"
        },
        {
          "internalType": "bool",
          "name": "approved",
          "type": "bool"
        }
      ],
      "name": "setApprovalForAll",
      "outputs": [],
      "stateMutability": "nonpayable",
      "type": "function"
    },
    {
      "inputs": [
        {
          "internalType": "bytes4",
          "name": "interfaceId",
          "type": "bytes4"
        }
      ],
      "name": "supportsInterface",
      "outputs": [
        {
          "internalType": "bool",
          "name": "",
          "type": "bool"
        }
      ],
      "stateMutability": "view",
      "type": "function"
    },
    {
      "inputs": [],
      "name": "symbol",
      "outputs": [
        {
          "internalType": "string",
          "name": "",
          "type": "string"
        }
      ],
      "stateMutability": "view",
      "type": "function"
    },
    {
      "inputs": [
        {
          "internalType": "uint256",
          "name": "tokenId",
          "type": "uint256"
        }
      ],
      "name": "tokenURI",
      "outputs": [
        {
          "internalType": "string",
          "name": "",
          "type": "string"
        }
      ],
      "stateMutability": "view",
      "type": "function"
    },
    {
      "inputs": [
        {
          "internalType": "address",
          "name": "from",
          "type": "address"
        },
        {
          "internalType": "address",
          "name": "to",
          "type": "address"
        },
        {
          "internalType": "uint256",
          "name": "tokenId",
          "type": "uint256"
        }
      ],
      "name": "transferFrom",
      "outputs": [],
      "stateMutability": "nonpayable",
      "type": "function"
    }
  ],
  "bytecode": "0x60806040526000600a553480156200001657600080fd5b5060405180604001604052806005815260200164456d6f6a6960d81b81525060405180604001604052806005815260200164454d4f4a4960d81b81525081600090805190602001906200006b9291906200008a565b508051620000819060019060208401906200008a565b5050506200016d565b828054620000989062000130565b90600052602060002090601f016020900481019282620000bc576000855562000107565b82601f10620000d757805160ff191683800117855562000107565b8280016001018555821562000107579182015b8281111562000107578251825591602001919060010190620000ea565b506200011592915062000119565b5090565b5b808211156200011557600081556001016200011a565b600181811c908216806200014557607f821691505b602082108114156200016757634e487b7160e01b600052602260045260246000fd5b50919050565b6123d2806200017d6000396000f3fe608060405234801561001057600080fd5b50600436106101215760003560e01c80637ed2933f116100ad578063adbe5b1211610071578063adbe5b121461027e578063b88d4fde1461029e578063c87b56dd146102b1578063d6422005146102c4578063e985e9c5146102d757600080fd5b80637ed2933f1461021d57806395d89b41146102305780639e0d8c2214610238578063a168b80514610258578063a22cb4651461026b57600080fd5b806323b872dd116100f457806323b872dd146101a357806336b0cd79146101b657806342842e0e146101d65780636352211e146101e957806370a08231146101fc57600080fd5b806301ffc9a71461012657806306fdde031461014e578063081812fc14610163578063095ea7b31461018e575b600080fd5b610139610134366004611a39565b610313565b60405190151581526020015b60405180910390f35b610156610365565b6040516101459190611aae565b610176610171366004611ac1565b6103f7565b6040516001600160a01b039091168152602001610145565b6101a161019c366004611af6565b61041e565b005b6101a16101b1366004611b20565b610539565b6101c96101c4366004611b5c565b61056a565b6040516101459190611bcf565b6101a16101e4366004611b20565b6106b5565b6101766101f7366004611ac1565b6106d0565b61020f61020a366004611be2565b610730565b604051908152602001610145565b6101c961022b366004611ce5565b6107b6565b61015661095c565b61024b610246366004611d9b565b61096b565b6040516101459190611e22565b6101c9610266366004611ac1565b610bb6565b6101a1610279366004611e84565b610d01565b61029161028c366004611f54565b610d10565b6040516101459190612017565b6101a16102ac36600461202a565b610dcf565b6101566102bf366004611ac1565b610e07565b6101c96102d23660046120a6565b610f10565b6101396102e53660046120db565b6001600160a01b03918216600090815260056020908152604080832093909416825291909152205460ff1690565b60006001600160e01b031982166380ac58cd60e01b148061034457506001600160e01b03198216635b5e139f60e01b145b8061035f57506301ffc9a760e01b6001600160e01b03198316145b92915050565b6060600080546103749061210e565b80601f01602080910402602001604051908101604052809291908181526020018280546103a09061210e565b80156103ed5780601f106103c2576101008083540402835291602001916103ed565b820191906000526020600020905b8154815290600101906020018083116103d057829003601f168201915b5050505050905090565b600061040282611086565b506000908152600460205260409020546001600160a01b031690565b6000610429826106d0565b9050806001600160a01b0316836001600160a01b0316141561049c5760405162461bcd60e51b815260206004820152602160248201527f4552433732313a20617070726f76616c20746f2063757272656e74206f776e656044820152603960f91b60648201526084015b60405180910390fd5b336001600160a01b03821614806104b857506104b881336102e5565b61052a5760405162461bcd60e51b815260206004820152603d60248201527f4552433732313a20617070726f76652063616c6c6572206973206e6f7420746f60448201527f6b656e206f776e6572206f7220617070726f76656420666f7220616c6c0000006064820152608401610493565b61053483836110e8565b505050565b6105433382611156565b61055f5760405162461bcd60e51b815260040161049390612149565b6105348383836111d4565b610572611952565b6000838152600960209081526040808320858452909152902054806105cb5750506040805160a081018252600080825282516020818101855282825283015291810191909152606081018390526080810182905261035f565b600860008281526020019081526020016000206040518060a0016040529081600082015481526020016001820180546106039061210e565b80601f016020809104026020016040519081016040528092919081815260200182805461062f9061210e565b801561067c5780601f106106515761010080835404028352916020019161067c565b820191906000526020600020905b81548152906001019060200180831161065f57829003601f168201915b505050918352505060028201546001600160a01b0316602082015260038201546040820152600490910154606090910152949350505050565b61053483838360405180602001604052806000815250610dcf565b6000818152600260205260408120546001600160a01b03168061035f5760405162461bcd60e51b8152602060048201526018602482015277115490cdcc8c4e881a5b9d985b1a59081d1bdad95b88125160421b6044820152606401610493565b60006001600160a01b03821661079a5760405162461bcd60e51b815260206004820152602960248201527f4552433732313a2061646472657373207a65726f206973206e6f7420612076616044820152683634b21037bbb732b960b91b6064820152608401610493565b506001600160a01b031660009081526003602052604090205490565b6107be611952565b815160009081526009602090815260408083208286015184529091529020541561082a5760405162461bcd60e51b815260206004820181905260248201527f5468697320636f6f7264696e61746520697320616c72656164792074616b656e6044820152606401610493565b610838600780546001019055565b600061084360075490565b905061084f3382611338565b61085d8184608001516114c3565b6040805160a0810182528281528482015160208083019182526060808801516001600160a01b031684860152875190840152868101516080840152600085815260088252939093208251815590518051929384936108c1926001850192019061198a565b506040828101516002830180546001600160a01b0319166001600160a01b0390921691909117905560608301516003830155608090920151600490910155845160009081526009602090815282822081880151835290529081208390558451600a8054919290916109339084906121ac565b90915550506020840151600a805460009061094f9084906121ac565b9091555090949350505050565b6060600180546103749061210e565b606084831215801561097d5750838212155b6109b95760405162461bcd60e51b815260206004820152600d60248201526c496e76616c69642072616e676560981b6044820152606401610493565b60006109c585846121ed565b6109d09060016121ac565b905060006109de87866121ed565b6109e99060016121ac565b905060006109f7828461222c565b90506101f4811115610a4b5760405162461bcd60e51b815260206004820152601a60248201527f52656374616e676c6520617265612065786365656473203530300000000000006044820152606401610493565b60008367ffffffffffffffff811115610a6657610a66611bfd565b604051908082528060200260200182016040528015610a9957816020015b6060815260200190600190039081610a845790505b50905060005b84811015610ba7578367ffffffffffffffff811115610ac057610ac0611bfd565b604051908082528060200260200182016040528015610af957816020015b610ae6611952565b815260200190600190039081610ade5790505b50828281518110610b0c57610b0c61224b565b60209081029190910101526000610b238a836121ac565b905060005b85811015610b92576000610b3c8d836121ac565b9050610b48818461056a565b858581518110610b5a57610b5a61224b565b60200260200101518381518110610b7357610b7361224b565b6020026020010181905250508080610b8a90612261565b915050610b28565b50508080610b9f90612261565b915050610a9f565b5093505050505b949350505050565b610bbe611952565b6000828152600260205260409020546001600160a01b0316610c195760405162461bcd60e51b8152602060048201526014602482015273151bdad95b88191bd95cc81b9bdd08195e1a5cdd60621b6044820152606401610493565b600860008381526020019081526020016000206040518060a001604052908160008201548152602001600182018054610c519061210e565b80601f0160208091040260200160405190810160405280929190818152602001828054610c7d9061210e565b8015610cca5780601f10610c9f57610100808354040283529160200191610cca565b820191906000526020600020905b815481529060010190602001808311610cad57829003601f168201915b505050918352505060028201546001600160a01b031660208201526003820154604082015260049091015460609091015292915050565b610d0c33838361155d565b5050565b60606000825167ffffffffffffffff811115610d2e57610d2e611bfd565b604051908082528060200260200182016040528015610d6757816020015b610d54611952565b815260200190600190039081610d4c5790505b50905060005b8351811015610dc857610d98848281518110610d8b57610d8b61224b565b6020026020010151610f10565b828281518110610daa57610daa61224b565b60200260200101819052508080610dc090612261565b915050610d6d565b5092915050565b610dd93383611156565b610df55760405162461bcd60e51b815260040161049390612149565b610e018484848461162c565b50505050565b6060610e1282611086565b60008281526006602052604081208054610e2b9061210e565b80601f0160208091040260200160405190810160405280929190818152602001828054610e579061210e565b8015610ea45780601f10610e7957610100808354040283529160200191610ea4565b820191906000526020600020905b815481529060010190602001808311610e8757829003601f168201915b505050505090506000610ec260408051602081019091526000815290565b9050805160001415610ed5575092915050565b815115610f07578082604051602001610eef92919061227c565b60405160208183030381529060405292505050919050565b610bae8461165f565b610f18611952565b604080830151600090815260096020908152828220606086015183529052205415610f855760405162461bcd60e51b815260206004820181905260248201527f5468697320636f6f7264696e61746520697320616c72656164792074616b656e6044820152606401610493565b610f93600780546001019055565b6000610f9e60075490565b9050610faa3382611338565b610fb88184608001516114c3565b6040805160a08101825282815284516020808301918252868101516001600160a01b0316838501528684015160608085019190915287015160808401526000858152600882529390932082518155905180519293849361101e926001850192019061198a565b506040828101516002830180546001600160a01b0319166001600160a01b039092169190911790556060808401516003840155608090930151600490920191909155858101516000908152600960209081528282209790930151815295909152909320555090565b6000818152600260205260409020546001600160a01b03166110e55760405162461bcd60e51b8152602060048201526018602482015277115490cdcc8c4e881a5b9d985b1a59081d1bdad95b88125160421b6044820152606401610493565b50565b600081815260046020526040902080546001600160a01b0319166001600160a01b038416908117909155819061111d826106d0565b6001600160a01b03167f8c5be1e5ebec7d5bd14f71427d1e84f3dd0314c0f7b2291e5b200ac8c7c3b92560405160405180910390a45050565b600080611162836106d0565b9050806001600160a01b0316846001600160a01b031614806111a957506001600160a01b0380821660009081526005602090815260408083209388168352929052205460ff165b80610bae5750836001600160a01b03166111c2846103f7565b6001600160a01b031614949350505050565b826001600160a01b03166111e7826106d0565b6001600160a01b03161461120d5760405162461bcd60e51b8152600401610493906122ab565b6001600160a01b03821661126f5760405162461bcd60e51b8152602060048201526024808201527f4552433732313a207472616e7366657220746f20746865207a65726f206164646044820152637265737360e01b6064820152608401610493565b826001600160a01b0316611282826106d0565b6001600160a01b0316146112a85760405162461bcd60e51b8152600401610493906122ab565b600081815260046020908152604080832080546001600160a01b03199081169091556001600160a01b0387811680865260038552838620805460001901905590871680865283862080546001019055868652600290945282852080549092168417909155905184937fddf252ad1be2c89b69c2b068fc378daa952ba7f163c4a11628f55a4df523b3ef91a4505050565b6001600160a01b03821661138e5760405162461bcd60e51b815260206004820181905260248201527f4552433732313a206d696e7420746f20746865207a65726f20616464726573736044820152606401610493565b6000818152600260205260409020546001600160a01b0316156113f35760405162461bcd60e51b815260206004820152601c60248201527f4552433732313a20746f6b656e20616c7265616479206d696e746564000000006044820152606401610493565b6000818152600260205260409020546001600160a01b0316156114585760405162461bcd60e51b815260206004820152601c60248201527f4552433732313a20746f6b656e20616c7265616479206d696e746564000000006044820152606401610493565b6001600160a01b038216600081815260036020908152604080832080546001019055848352600290915280822080546001600160a01b0319168417905551839291907fddf252ad1be2c89b69c2b068fc378daa952ba7f163c4a11628f55a4df523b3ef908290a45050565b6000828152600260205260409020546001600160a01b031661153e5760405162461bcd60e51b815260206004820152602e60248201527f45524337323155524953746f726167653a2055524920736574206f66206e6f6e60448201526d32bc34b9ba32b73a103a37b5b2b760911b6064820152608401610493565b600082815260066020908152604090912082516105349284019061198a565b816001600160a01b0316836001600160a01b031614156115bf5760405162461bcd60e51b815260206004820152601960248201527f4552433732313a20617070726f766520746f2063616c6c6572000000000000006044820152606401610493565b6001600160a01b03838116600081815260056020908152604080832094871680845294825291829020805460ff191686151590811790915591519182527f17307eab39ab6107e8899845ad3d59bd9653f200f220920489ca2b5937696c31910160405180910390a3505050565b6116378484846111d4565b611643848484846116d3565b610e015760405162461bcd60e51b8152600401610493906122f0565b606061166a82611086565b600061168160408051602081019091526000815290565b905060008151116116a157604051806020016040528060008152506116cc565b806116ab846117dd565b6040516020016116bc92919061227c565b6040516020818303038152906040525b9392505050565b60006001600160a01b0384163b156117d557604051630a85bd0160e11b81526001600160a01b0385169063150b7a0290611717903390899088908890600401612342565b602060405180830381600087803b15801561173157600080fd5b505af1925050508015611761575060408051601f3d908101601f1916820190925261175e9181019061237f565b60015b6117bb573d80801561178f576040519150601f19603f3d011682016040523d82523d6000602084013e611794565b606091505b5080516117b35760405162461bcd60e51b8152600401610493906122f0565b805181602001fd5b6001600160e01b031916630a85bd0160e11b149050610bae565b506001610bae565b606060006117ea8361187a565b600101905060008167ffffffffffffffff81111561180a5761180a611bfd565b6040519080825280601f01601f191660200182016040528015611834576020820181803683370190505b5090508181016020015b600019016f181899199a1a9b1b9c1cb0b131b232b360811b600a86061a8153600a850494508461186d57611872565b61183e565b509392505050565b60008072184f03e93ff9f4daa797ed6e38ed64bf6a1f0160401b83106118b95772184f03e93ff9f4daa797ed6e38ed64bf6a1f0160401b830492506040015b6d04ee2d6d415b85acef810000000083106118e5576d04ee2d6d415b85acef8100000000830492506020015b662386f26fc10000831061190357662386f26fc10000830492506010015b6305f5e100831061191b576305f5e100830492506008015b612710831061192f57612710830492506004015b60648310611941576064830492506002015b600a831061035f5760010192915050565b6040518060a00160405280600081526020016060815260200160006001600160a01b0316815260200160008152602001600081525090565b8280546119969061210e565b90600052602060002090601f0160209004810192826119b857600085556119fe565b82601f106119d157805160ff19168380011785556119fe565b828001600101855582156119fe579182015b828111156119fe5782518255916020019190600101906119e3565b50611a0a929150611a0e565b5090565b5b80821115611a0a5760008155600101611a0f565b6001600160e01b0319811681146110e557600080fd5b600060208284031215611a4b57600080fd5b81356116cc81611a23565b60005b83811015611a71578181015183820152602001611a59565b83811115610e015750506000910152565b60008151808452611a9a816020860160208601611a56565b601f01601f19169290920160200192915050565b6020815260006116cc6020830184611a82565b600060208284031215611ad357600080fd5b5035919050565b80356001600160a01b0381168114611af157600080fd5b919050565b60008060408385031215611b0957600080fd5b611b1283611ada565b946020939093013593505050565b600080600060608486031215611b3557600080fd5b611b3e84611ada565b9250611b4c60208501611ada565b9150604084013590509250925092565b60008060408385031215611b6f57600080fd5b50508035926020909101359150565b805182526000602082015160a06020850152611b9d60a0850182611a82565b6040848101516001600160a01b0316908601526060808501519086015260809384015193909401929092525090919050565b6020815260006116cc6020830184611b7e565b600060208284031215611bf457600080fd5b6116cc82611ada565b634e487b7160e01b600052604160045260246000fd5b60405160a0810167ffffffffffffffff81118282101715611c3657611c36611bfd565b60405290565b604051601f8201601f1916810167ffffffffffffffff81118282101715611c6557611c65611bfd565b604052919050565b600067ffffffffffffffff831115611c8757611c87611bfd565b611c9a601f8401601f1916602001611c3c565b9050828152838383011115611cae57600080fd5b828260208301376000602084830101529392505050565b600082601f830112611cd657600080fd5b6116cc83833560208501611c6d565b600060208284031215611cf757600080fd5b813567ffffffffffffffff80821115611d0f57600080fd5b9083019060a08286031215611d2357600080fd5b611d2b611c13565b8235815260208301356020820152604083013582811115611d4b57600080fd5b611d5787828601611cc5565b604083015250611d6960608401611ada565b6060820152608083013582811115611d8057600080fd5b611d8c87828601611cc5565b60808301525095945050505050565b60008060008060808587031215611db157600080fd5b5050823594602084013594506040840135936060013592509050565b600081518084526020808501808196508360051b8101915082860160005b85811015611e15578284038952611e03848351611b7e565b98850198935090840190600101611deb565b5091979650505050505050565b6000602080830181845280855180835260408601915060408160051b870101925083870160005b82811015611e7757603f19888603018452611e65858351611dcd565b94509285019290850190600101611e49565b5092979650505050505050565b60008060408385031215611e9757600080fd5b611ea083611ada565b915060208301358015158114611eb557600080fd5b809150509250929050565b600060a08284031215611ed257600080fd5b611eda611c13565b9050813567ffffffffffffffff80821115611ef457600080fd5b611f0085838601611cc5565b8352611f0e60208501611ada565b602084015260408401356040840152606084013560608401526080840135915080821115611f3b57600080fd5b50611f4884828501611cc5565b60808301525092915050565b60006020808385031215611f6757600080fd5b823567ffffffffffffffff80821115611f7f57600080fd5b818501915085601f830112611f9357600080fd5b813581811115611fa557611fa5611bfd565b8060051b611fb4858201611c3c565b9182528381018501918581019089841115611fce57600080fd5b86860192505b8383101561200a57823585811115611fec5760008081fd5b611ffa8b89838a0101611ec0565b8352509186019190860190611fd4565b9998505050505050505050565b6020815260006116cc6020830184611dcd565b6000806000806080858703121561204057600080fd5b61204985611ada565b935061205760208601611ada565b925060408501359150606085013567ffffffffffffffff81111561207a57600080fd5b8501601f8101871361208b57600080fd5b61209a87823560208401611c6d565b91505092959194509250565b6000602082840312156120b857600080fd5b813567ffffffffffffffff8111156120cf57600080fd5b610bae84828501611ec0565b600080604083850312156120ee57600080fd5b6120f783611ada565b915061210560208401611ada565b90509250929050565b600181811c9082168061212257607f821691505b6020821081141561214357634e487b7160e01b600052602260045260246000fd5b50919050565b6020808252602d908201527f4552433732313a2063616c6c6572206973206e6f7420746f6b656e206f776e6560408201526c1c881bdc88185c1c1c9bdd9959609a1b606082015260800190565b634e487b7160e01b600052601160045260246000fd5b600080821280156001600160ff1b03849003851316156121ce576121ce612196565b600160ff1b83900384128116156121e7576121e7612196565b50500190565b60008083128015600160ff1b85018412161561220b5761220b612196565b6001600160ff1b038401831381161561222657612226612196565b50500390565b600081600019048311821515161561224657612246612196565b500290565b634e487b7160e01b600052603260045260246000fd5b600060001982141561227557612275612196565b5060010190565b6000835161228e818460208801611a56565b8351908301906122a2818360208801611a56565b01949350505050565b60208082526025908201527f4552433732313a207472616e736665722066726f6d20696e636f72726563742060408201526437bbb732b960d91b606082015260800190565b60208082526032908201527f4552433732313a207472616e7366657220746f206e6f6e20455243373231526560408201527131b2b4bb32b91034b6b83632b6b2b73a32b960711b606082015260800190565b6001600160a01b038581168252841660208201526040810183905260806060820181905260009061237590830184611a82565b9695505050505050565b60006020828403121561239157600080fd5b81516116cc81611a2356fea26469706673582212205f7456b0ca4faf6ff93342c7a197d721a47aab7449b8f5aa1adb8fbcd4aa114564736f6c63430008090033",
  "linkReferences": {},
  "deployedLinkReferences": {}
}